{
  "_format": "hh-sol-artifact-1",
  "contractName": "Forum",
  "sourceName": "contracts/Forum.sol",
  "abi": [
    {
      "anonymous": false,
      "inputs": [
        {
          "indexed": true,
          "internalType": "uint256",
          "name": "id",
          "type": "uint256"
        },
        {
          "indexed": true,
          "internalType": "address",
          "name": "author",
          "type": "address"
        },
        {
          "indexed": false,
          "internalType": "string",
          "name": "title",
          "type": "string"
        }
      ],
      "name": "PostCreated",
      "type": "event"
    },
    {
      "anonymous": false,
      "inputs": [
        {
          "indexed": true,
          "internalType": "uint256",
          "name": "id",
          "type": "uint256"
        },
        {
          "indexed": true,
          "internalType": "address",
          "name": "voter",
          "type": "address"
        }
      ],
      "name": "PostUpvoted",
      "type": "event"
    },
    {
      "inputs": [
        {
          "internalType": "string",
          "name": "_title",
          "type": "string"
        },
        {
          "internalType": "string",
          "name": "_content",
          "type": "string"
        }
      ],
      "name": "createPost",
      "outputs": [],
      "stateMutability": "nonpayable",
      "type": "function"
    },
    {
      "inputs": [
        {
          "internalType": "uint256",
          "name": "_id",
          "type": "uint256"
        }
      ],
      "name": "getPost",
      "outputs": [
        {
          "components": [
            {
              "internalType": "uint256",
              "name": "id",
              "type": "uint256"
            },
            {
              "internalType": "address",
              "name": "author",
              "type": "address"
            },
            {
              "internalType": "string",
              "name": "title",
              "type": "string"
            },
            {
              "internalType": "string",
              "name": "content",
              "type": "string"
            },
            {
              "internalType": "uint256",
              "name": "timestamp",
              "type": "uint256"
            },
            {
              "internalType": "uint256",
              "name": "upvotes",
              "type": "uint256"
            }
          ],
          "internalType": "struct Forum.Post",
          "name": "",
          "type": "tuple"
        }
      ],
      "stateMutability": "view",
      "type": "function"
    },
    {
      "inputs": [
        {
          "internalType": "address",
          "name": "",
          "type": "address"
        },
        {
          "internalType": "uint256",
          "name": "",
          "type": "uint256"
        }
      ],
      "name": "hasVoted",
      "outputs": [
        {
          "internalType": "bool",
          "name": "",
          "type": "bool"
        }
      ],
      "stateMutability": "view",
      "type": "function"
    },
    {
      "inputs": [],
      "name": "postCount",
      "outputs": [
        {
          "internalType": "uint256",
          "name": "",
          "type": "uint256"
        }
      ],
      "stateMutability": "view",
      "type": "function"
    },
    {
      "inputs": [
        {
          "internalType": "uint256",
          "name": "",
          "type": "uint256"
        }
      ],
      "name": "posts",
      "outputs": [
        {
          "internalType": "uint256",
          "name": "id",
          "type": "uint256"
        },
        {
          "internalType": "address",
          "name": "author",
          "type": "address"
        },
        {
          "internalType": "string",
          "name": "title",
          "type": "string"
        },
        {
          "internalType": "string",
          "name": "content",
          "type": "string"
        },
        {
          "internalType": "uint256",
          "name": "timestamp",
          "type": "uint256"
        },
        {
          "internalType": "uint256",
          "name": "upvotes",
          "type": "uint256"
        }
      ],
      "stateMutability": "view",
      "type": "function"
    },
    {
      "inputs": [
        {
          "internalType": "uint256",
          "name": "_id",
          "type": "uint256"
        }
      ],
      "name": "upvotePost",
      "outputs": [],
      "stateMutability": "nonpayable",
      "type": "function"
    }
  ],
  "bytecode": "0x608060405234801561001057600080fd5b5061124e806100206000396000f3fe608060405234801561001057600080fd5b50600436106100625760003560e01c80630b1e7f831461006757806317906c2e1461009c578063392338f5146100ba57806340731c24146100d657806342545825146101065780638d2f826814610136575b600080fd5b610081600480360381019061007c91906108c9565b610152565b604051610093969594939291906109d6565b60405180910390f35b6100a46102be565b6040516100b19190610a45565b60405180910390f35b6100d460048036038101906100cf9190610b95565b6102c4565b005b6100f060048036038101906100eb91906108c9565b61041f565b6040516100fd9190610d05565b60405180910390f35b610120600480360381019061011b9190610d53565b610634565b60405161012d9190610dae565b60405180910390f35b610150600480360381019061014b91906108c9565b610663565b005b60006020528060005260406000206000915090508060000154908060010160009054906101000a900473ffffffffffffffffffffffffffffffffffffffff16908060020180546101a190610df8565b80601f01602080910402602001604051908101604052809291908181526020018280546101cd90610df8565b801561021a5780601f106101ef5761010080835404028352916020019161021a565b820191906000526020600020905b8154815290600101906020018083116101fd57829003601f168201915b50505050509080600301805461022f90610df8565b80601f016020809104026020016040519081016040528092919081815260200182805461025b90610df8565b80156102a85780601f1061027d576101008083540402835291602001916102a8565b820191906000526020600020905b81548152906001019060200180831161028b57829003601f168201915b5050505050908060040154908060050154905086565b60015481565b600160008154809291906102d790610e58565b91905055506040518060c0016040528060015481526020013373ffffffffffffffffffffffffffffffffffffffff168152602001838152602001828152602001428152602001600081525060008060015481526020019081526020016000206000820151816000015560208201518160010160006101000a81548173ffffffffffffffffffffffffffffffffffffffff021916908373ffffffffffffffffffffffffffffffffffffffff160217905550604082015181600201908161039c919061104c565b5060608201518160030190816103b2919061104c565b506080820151816004015560a082015181600501559050503373ffffffffffffffffffffffffffffffffffffffff166001547f8e40a51278abe2f4b410c0a96ff0bdd024b22666ca334062bf72afd596984bd684604051610413919061111e565b60405180910390a35050565b610427610833565b60008211801561043957506001548211155b610478576040517f08c379a000000000000000000000000000000000000000000000000000000000815260040161046f9061118c565b60405180910390fd5b6000808381526020019081526020016000206040518060c0016040529081600082015481526020016001820160009054906101000a900473ffffffffffffffffffffffffffffffffffffffff1673ffffffffffffffffffffffffffffffffffffffff1673ffffffffffffffffffffffffffffffffffffffff16815260200160028201805461050590610df8565b80601f016020809104026020016040519081016040528092919081815260200182805461053190610df8565b801561057e5780601f106105535761010080835404028352916020019161057e565b820191906000526020600020905b81548152906001019060200180831161056157829003601f168201915b5050505050815260200160038201805461059790610df8565b80601f01602080910402602001604051908101604052809291908181526020018280546105c390610df8565b80156106105780601f106105e557610100808354040283529160200191610610565b820191906000526020600020905b8154815290600101906020018083116105f357829003601f168201915b50505050508152602001600482015481526020016005820154815250509050919050565b60026020528160005260406000206020528060005260406000206000915091509054906101000a900460ff1681565b60008111801561067557506001548111155b6106b4576040517f08c379a00000000000000000000000000000000000000000000000000000000081526004016106ab9061118c565b60405180910390fd5b600260003373ffffffffffffffffffffffffffffffffffffffff1673ffffffffffffffffffffffffffffffffffffffff168152602001908152602001600020600082815260200190815260200160002060009054906101000a900460ff1615610752576040517f08c379a0000000000000000000000000000000000000000000000000000000008152600401610749906111f8565b60405180910390fd5b6000806000838152602001908152602001600020905080600501600081548092919061077d90610e58565b91905055506001600260003373ffffffffffffffffffffffffffffffffffffffff1673ffffffffffffffffffffffffffffffffffffffff168152602001908152602001600020600084815260200190815260200160002060006101000a81548160ff0219169083151502179055503373ffffffffffffffffffffffffffffffffffffffff16827f7204271fdf6ad7b973ba75087dfc498ffa340c47f3338752d2986a111a8efb1960405160405180910390a35050565b6040518060c0016040528060008152602001600073ffffffffffffffffffffffffffffffffffffffff168152602001606081526020016060815260200160008152602001600081525090565b6000604051905090565b600080fd5b600080fd5b6000819050919050565b6108a681610893565b81146108b157600080fd5b50565b6000813590506108c38161089d565b92915050565b6000602082840312156108df576108de610889565b5b60006108ed848285016108b4565b91505092915050565b6108ff81610893565b82525050565b600073ffffffffffffffffffffffffffffffffffffffff82169050919050565b600061093082610905565b9050919050565b61094081610925565b82525050565b600081519050919050565b600082825260208201905092915050565b60005b83811015610980578082015181840152602081019050610965565b60008484015250505050565b6000601f19601f8301169050919050565b60006109a882610946565b6109b28185610951565b93506109c2818560208601610962565b6109cb8161098c565b840191505092915050565b600060c0820190506109eb60008301896108f6565b6109f86020830188610937565b8181036040830152610a0a818761099d565b90508181036060830152610a1e818661099d565b9050610a2d60808301856108f6565b610a3a60a08301846108f6565b979650505050505050565b6000602082019050610a5a60008301846108f6565b92915050565b600080fd5b600080fd5b7f4e487b7100000000000000000000000000000000000000000000000000000000600052604160045260246000fd5b610aa28261098c565b810181811067ffffffffffffffff82111715610ac157610ac0610a6a565b5b80604052505050565b6000610ad461087f565b9050610ae08282610a99565b919050565b600067ffffffffffffffff821115610b0057610aff610a6a565b5b610b098261098c565b9050602081019050919050565b82818337600083830152505050565b6000610b38610b3384610ae5565b610aca565b905082815260208101848484011115610b5457610b53610a65565b5b610b5f848285610b16565b509392505050565b600082601f830112610b7c57610b7b610a60565b5b8135610b8c848260208601610b25565b91505092915050565b60008060408385031215610bac57610bab610889565b5b600083013567ffffffffffffffff811115610bca57610bc961088e565b5b610bd685828601610b67565b925050602083013567ffffffffffffffff811115610bf757610bf661088e565b5b610c0385828601610b67565b9150509250929050565b610c1681610893565b82525050565b610c2581610925565b82525050565b600082825260208201905092915050565b6000610c4782610946565b610c518185610c2b565b9350610c61818560208601610962565b610c6a8161098c565b840191505092915050565b600060c083016000830151610c8d6000860182610c0d565b506020830151610ca06020860182610c1c565b5060408301518482036040860152610cb88282610c3c565b91505060608301518482036060860152610cd28282610c3c565b9150506080830151610ce76080860182610c0d565b5060a0830151610cfa60a0860182610c0d565b508091505092915050565b60006020820190508181036000830152610d1f8184610c75565b905092915050565b610d3081610925565b8114610d3b57600080fd5b50565b600081359050610d4d81610d27565b92915050565b60008060408385031215610d6a57610d69610889565b5b6000610d7885828601610d3e565b9250506020610d89858286016108b4565b9150509250929050565b60008115159050919050565b610da881610d93565b82525050565b6000602082019050610dc36000830184610d9f565b92915050565b7f4e487b7100000000000000000000000000000000000000000000000000000000600052602260045260246000fd5b60006002820490506001821680610e1057607f821691505b602082108103610e2357610e22610dc9565b5b50919050565b7f4e487b7100000000000000000000000000000000000000000000000000000000600052601160045260246000fd5b6000610e6382610893565b91507fffffffffffffffffffffffffffffffffffffffffffffffffffffffffffffffff8203610e9557610e94610e29565b5b600182019050919050565b60008190508160005260206000209050919050565b60006020601f8301049050919050565b600082821b905092915050565b600060088302610f027fffffffffffffffffffffffffffffffffffffffffffffffffffffffffffffffff82610ec5565b610f0c8683610ec5565b95508019841693508086168417925050509392505050565b6000819050919050565b6000610f49610f44610f3f84610893565b610f24565b610893565b9050919050565b6000819050919050565b610f6383610f2e565b610f77610f6f82610f50565b848454610ed2565b825550505050565b600090565b610f8c610f7f565b610f97818484610f5a565b505050565b5b81811015610fbb57610fb0600082610f84565b600181019050610f9d565b5050565b601f82111561100057610fd181610ea0565b610fda84610eb5565b81016020851015610fe9578190505b610ffd610ff585610eb5565b830182610f9c565b50505b505050565b600082821c905092915050565b600061102360001984600802611005565b1980831691505092915050565b600061103c8383611012565b9150826002028217905092915050565b61105582610946565b67ffffffffffffffff81111561106e5761106d610a6a565b5b6110788254610df8565b611083828285610fbf565b600060209050601f8311600181146110b657600084156110a4578287015190505b6110ae8582611030565b865550611116565b601f1984166110c486610ea0565b60005b828110156110ec578489015182556001820191506020850194506020810190506110c7565b868310156111095784890151611105601f891682611012565b8355505b6001600288020188555050505b505050505050565b60006020820190508181036000830152611138818461099d565b905092915050565b7f506f737420646f6573206e6f7420657869737400000000000000000000000000600082015250565b6000611176601383610951565b915061118182611140565b602082019050919050565b600060208201905081810360008301526111a581611169565b9050919050565b7f416c726561647920766f74656400000000000000000000000000000000000000600082015250565b60006111e2600d83610951565b91506111ed826111ac565b602082019050919050565b60006020820190508181036000830152611211816111d5565b905091905056fea264697066735822122096f8eae1f582f9080724569784aaf86d4d03be64d376465d081480201af9db4564736f6c63430008180033",
  "linkReferences": {},
  "deployedLinkReferences": {}
}